:020000040800F2
:100000009814002069620008915B0008935B000867
:10001000955B0008975B0008995B000800000000F2
:100020000000000000000000000000009B5B0008D2
:100030009D5B0008000000009F5B0008A15B0008BA
:10004000C1620008C5620008C9620008CD620008EC
:10005000D1620008D5620008655D0008DD62000815
:10006000E1620008E5620008E9620008BB030008DD
:10007000F1620008F5620008F9620008FD620008FC
:100080000163000805630008096300080D630008A8
:100090001163000815630008196300081D63000858
:1000A0002163000825630008296300082D63000808
:1000B0003163000835630008396300083D630008B8
:1000C0004163000845630008496300084D63000868
:1000D0005163000855630008596300085D63000818
:1000E0006163000865630008755D00086D630008C2
:1000F000716300087563000879630008B3030008A2
:10010000816300088563000889630008C303000851
:100110009163000895630008996300089D630008D7
:10012000A1630008A5630008A9630008AD63000887
:10013000B1630008B5630008B9630008BD63000837
:10014000C1630008C5630008C96300089F5D00081B
:10015000D1630008D5630008D9630008DD63000897
:10016000E1630008E5630008E9630008ED63000847
:10017000F1630008F5630008F9630008FD630008F7
:100180000164000805640008DFF8001A0860DFF861
:10019000FC190968012930D1DFF8F4195FF4001265
:1001A0000A60DFF8F019DFF8F0290A60DFF8EC19CF
:1001B000DFF8EC290A60DFF8EC1900220A60DFF8AA
:1001C000E8192F220A60DFF8E4195FF020520A6074
:1001D000DFF8FC1A5FF010520A60DFF8F81A5FF0DF
:1001E00001520A60DFF8F01A5FF008520A60DFF887
:1001F000C0195FF004520A6031E002282FD1DFF805
:1002000090195FF400120A60DFF88819DFF8CC2A31
:100210000A60DFF88819DFF8C82A0A60DFF8841955
:1002200000220A60DFF880190B220A60DFF87C19CF
:10023000DFF8E82A0A60DFF8981ADFF8E42A0A6093
:10024000DFF8901ADFF8DC2A0A60DFF88C1ADFF892
:10025000D82A0A60DFF85819DFF8D42A0A607047F4
:1002600070B504000D001600EDB2652D01D36421B8
:1002700006E0EDB2FF2000FB05F0642190FBF1F1F8
:100280003200C9B2200080B200F0B8F8002801D0D6
:10029000012002E000F098FC002070BD80B500F065
:1002A00021FD00F02DF9002002BD80B5DFF8FC082B
:1002B0000168DFF8E008006800F07EFE002877D0D3
:1002C000DFF8680A006800285ED0DFF8C808006818
:1002D00000F066FE0028F8D1DFF8D0080168DFF8EA
:1002E000B408006800F087FEDFF89C0ADFF8941A73
:1002F00009688160DFF8340A0068B0F5803F03D2F6
:10030000DFF8280A006801E04FF6FF70DFF8781A7E
:100310000861DFF8741ADFF87C08006800F007FE57
:100320000121DFF87008006800F02DFEDFF8FC09FD
:100330000068B0F5803F03D2DFF8F009006801E003
:100340004FF6FF70DFF83C1A096811EB4000DFF848
:10035000341A0860DFF8D4090068B0F5803F03D292
:10036000DFF8C809006801E04FF6FF70DFF8BC193C
:100370000968081ADFF8B41908600121DFF81408C9
:10038000006800F000FE13E00021DFF808080068B4
:1003900000F0F9FDDFF814080168DFF8F8070068DD
:1003A00000F029FE0021DFF8DC09006801F0A2FB63
:1003B00001BD80B5FFF779FF01BD80B5FFF775FF7F
:1003C00001BD80B50221DFF8C40901F08CFD0028D1
:1003D00013D0DFF8B8070068022806D101F08BFBC4
:1003E000010089B2042001F0C7FD01F084FB010087
:1003F00089B2DFF8980901F053FD01BDF8B504009A
:100400000D001600002700F0EEFA00F0B4F800F03E
:1004100070FA0121022000F0C0F8C0190700AF21D6
:10042000042000F0BAF8C0190700DFF86409AF2112
:1004300001708121052000F0B0F8C01907000421E7
:10044000062000F0AAF8C01907002800C0B200F08A
:1004500069F8DFF84009006802281DD10121082051
:1004600000F09BF8C01907000121092000F095F861
:10047000C0190700C0210E2000F08FF8C019070036
:100480000021142000F089F8C01907000021152070
:1004900000F083F8C01907009E21022000F07DF8CB
:1004A000C019070000210A2000F077F8C0190700E2
:1004B000DFF8E0080068022805D004210E2000F0D3
:1004C0006CF8C01907000021272000F066F8C01959
:1004D00007000F211F2000F060F8C01907000A2153
:1004E0001A2000F05AF8C01907000A211B2000F05A
:1004F00054F8C0190700300000F028FA3800F2BDA7
:1005000010B5002400F037F80121022000F045F872
:100510000019040000F001FB00F017FA00F053FA94
:10052000200010BD38B504000025E4B2E72C10D33C
:1005300014F11901C9B2202000F02FF8401905006C
:1005400014F11901C9B2212000F027F84019050063
:100550000FE014F11901C9B2202000F01EF8401973
:10056000050014F11901C9B2212000F016F8401954
:100570000500280032BD80B500221021DFF81808E0
:1005800001F072FD44F6FF7000F014FB012210210F
:10059000DFF8040801F068FD01BD70B504000D002E
:1005A0000026DFF8F8075FF4961101605FF4003170
:1005B000DFF8EC0701F0A5FE00280BD0DFF8DC0720
:1005C0000068411EDFF8D42711600028EED101F049
:1005D0000BFB8AE00121DFF8C80701F039FEDFF8E4
:1005E000BC074FF480510160DFF8B817DFF8B0079F
:1005F00001F06BFE00280BD1DFF8A0070068411E58
:10060000DFF8982711600028EED101F0EDFA6CE0D8
:1006100000229421DFF8880701F038FEDFF87C071C
:100620004FF480510160DFF88017DFF8740701F0A4
:100630004CFE00280BD1DFF864070068411EDFF88C
:100640005C2711600028EED101F0CEFA4DE02100C8
:10065000C9B2DFF84C0701F032FEDFF840074FF473
:1006600080510160DFF84417DFF8340701F02DFEF8
:1006700000280BD1DFF824070068411EDFF81C2793
:1006800011600028EED101F0AFFA2EE02900C9B2C6
:10069000DFF80C0701F013FEDFF800075FF4961196
:1006A0000160DFF80C17DFF8F80601F02AFE0028D9
:1006B0000BD1DFF8E8060068411EDFF8E026116084
:1006C0000028EED101F090FAEBE70121DFF8D00627
:1006D00001F0CDFD2000C0B200F008F8EDB2A84254
:1006E00001D1002600E00126300070BD70B5040085
:1006F0000025DFF8A8065FF4961101605FF4003171
:10070000DFF89C0601F0FDFD00280BD0DFF88C0619
:100710000068411EDFF8842611600028EED101F048
:1007200063FAE5E00121DFF8780601F091FDDFF8DA
:100730006C064FF480510160DFF86816DFF8600640
:1007400001F0C3FD00280BD1DFF850060068411E00
:10075000DFF8482611600028EED101F045FAC7E025
:1007600000229421DFF8380601F090FDDFF82C0616
:100770004FF480510160DFF83016DFF8240601F0F5
:10078000A4FD00280BD1DFF814060068411EDFF835
:100790000C2611600028EED101F026FAA8E0210015
:1007A000C9B2DFF8FC0501F08AFDDFF8F0054FF46F
:1007B00080510160DFF8F815DFF8E40501F0A1FDD4
:1007C00000280BD1DFF8D4050068411EDFF8CC25E6
:1007D00011600028EED101F007FA89E00121DFF86D
:1007E000C00501F035FDDFF8B4054FF4805101601C
:1007F000DFF8B015DFF8A80501F067FD00280BD180
:10080000DFF898050068411EDFF890251160002888
:10081000EED101F0E9F96BE001229421DFF88005C7
:1008200001F034FDDFF874054FF480510160DFF80A
:100830008415DFF86C0501F064FD00280BD1DFF8AA
:100840005C050068411EDFF8542511600028EED1D8
:1008500001F0CAF94CE00021DFF8440501F021FD68
:10086000DFF8540506880121DFF8340501F0FFFCAC
:10087000DFF828054FF480510160DFF84015DFF8FC
:10088000200501F03EFD00280BD1DFF810050068BF
:10089000411EDFF8082511600028EED101F0A4F90F
:1008A00026E0DFF8FC0401F00DFD0500DFF8EC04A4
:1008B0004FF480510160DFF8E804008880050BD513
:1008C000DFF8D8040068411EDFF8D024116000284A
:1008D000F1D101F089F90BE00121DFF8C40401F046
:1008E000E0FCDFF8DC14DFF8B80401F02DFD28008F
:1008F00070BD00B585B001215FF4001001F0CEFDA0
:10090000DFF89C0401F0E4FB0020ADF804004BF696
:10091000FF70ADF806003320ADF808004FF480609A
:10092000ADF80A004FF48040ADF80C00DFF89404F5
:1009300000900121DFF8680401F07CFC00A9DFF8D9
:10094000600401F0F1FB05B000BD704710B588B040
:10095000040001214FF4004001F0A0FDDFF82C0459
:1009600001F05AF902940020ADF802000020ADF821
:1009700004000020ADF80C004FF40070ADF800004A
:100980004FF40070ADF8060000A9DFF8000401F094
:100990008FF9DFF800040068022812D101215FF00E
:1009A000005001F07BFD0020049000200590002005
:1009B000079004A9002001F0B3FA0121002001F002
:1009C000C8FA08B010BD80B50021DFF8C00301F0FF
:1009D00057FADFF8B80301F01FF900214FF4004087
:1009E00001F05CFD01BD00B583B00121082001F0DC
:1009F00037FD1020009001208DF8040002208DF8B2
:100A0000050000208DF8060000208DF8070000A9E1
:100A1000DFF8840301F0C2FA0121072001F020FD74
:100A20004FF41070009002208DF8040002208DF821
:100A3000050001208DF8060000208DF8070000A9B0
:100A4000DFF8840301F0AAFA04220621DFF8780314
:100A500001F011FB04220921DFF86C0301F00BFB0C
:100A60004FF4A050009002208DF8040002208DF871
:100A7000050000208DF8060000208DF8070000A971
:100A8000DFF8480301F08AFA06220421DFF8400368
:100A900001F0F1FA06220A21DFF8300301F0EBFA47
:100AA0003A48006802280DD01020009000A9DFF815
:100AB000200301F073FA06220C21DFF8100301F085
:100AC000DAFA10E00121012001F0CAFC10200090A8
:100AD00003208DF8040000208DF8070000A9DFF83E
:100AE000F00201F05BFA8020009002208DF80400F3
:100AF00002208DF8050000208DF8060000208DF8FA
:100B0000070000A9DFF8C40201F048FA0622072115
:100B1000DFF8B80201F0AFFA07BD00B583B04FF4BB
:100B2000A050009000208DF8040000208DF80500F2
:100B300000208DF8060000208DF8070000A9DFF8DE
:100B40008C0201F02BFA1020009000A9DFF880023F
:100B500001F024FA002204219D4801F08CFA0022C1
:100B60000A219A4801F087FA00220C21974801F0E7
:100B700082FA8020009000A9944801F00FFA062222
:100B80000721924801F077FA07BD000028010020F4
:100B90002C01002030010020B86002403401002008
:100BA0000C3C004054100020380100203C01002083
:100BB0004C01002001B40098002803D00098401E8A
:100BC0000090F8E701B0704780B5724800680128CE
:100BD0005CD101217F48006801F042FC00217E4881
:100BE000006800F0D0F97C48006800F0FFF8664823
:100BF0007A49096801606448794909684160624836
:100C00000021816060484021C1605F484FF6FE715D
:100C100001615D48002141615B484FF48061816161
:100C200059484FF40061C16157484FF400510162C7
:100C300055480021416254485FF4003181625248B6
:100C40000021C1625048002101634F4800214163E7
:100C50004D48002181634C495F48006800F067F906
:100C6000012210215C48006800F0D7F95D48006857
:100C70008DF8000000208DF8010000208DF80200A2
:100C800001208DF8030000A801F05FFC41480068D6
:100C9000012805D1012202213C4801F003F915E0A9
:100CA00000F048F801227121384801F006F933209C
:100CB0008DF8000000208DF8010000208DF8020062
:100CC00001208DF8030000A801F03FFC01BD0000E9
:100CD0004001002044010020480100201060024033
:100CE0000C74004080B53F4800688DF8000000207B
:100CF0008DF8010000208DF8020000208DF803001F
:100D000000A801F022FC00213348006800F03BF904
:100D10003148006800F06AF801BD000020000010B2
:100D200010000010010080100800001020010020B9
:100D30000400801000B587B001212B4801F090FB22
:100D400001215FF0005001F0A9FB1020009003206A
:100D50008DF8040000208DF8070000A91C4801F060
:100D60001DF900200290002003900020059002A9A8
:100D7000002001F0D5F80121002001F0EAF807B0C9
:100D800000BD000050100020980F0020003C0040E3
:100D90009010002028010020000C024024010020B7
:100DA000005400400100030082000700800007009B
:100DB0000400001002000010185400404000001011
:100DC00000040010A0860100000402400008024058
:100DD000000002402C0100203001002054100020AF
:100DE000340100203801002001002000016849087A
:100DF0004900016000210160002141600021816003
:100E00000021C1600021016121214161DFF8501200
:100E1000884204D1DFF84C123D220A6086E0DFF8F8
:100E20004812884205D1DFF83C124FF474620A6020
:100E30007CE0DFF83812884205D1DFF828125FF431
:100E400074120A6072E0DFF82812884205D1DFF8D8
:100E500014125FF074620A6068E0DFF818128842CA
:100E600005D1DFF81412DFF814220A605EE0DFF823
:100E70001012884205D1DFF80012DFF808220A605C
:100E800054E0DFF80412884205D1DFF8EC11DFF8F6
:100E9000FC210A604AE0DFF8F811884205D1DFF84A
:100EA000D8115FF03D520A6040E0DFF8E811884257
:100EB00004D1DFF8E4113D220A6037E0DFF8DC11ED
:100EC000884205D1DFF8D0114FF474620A602DE03A
:100ED000DFF8CC11884205D1DFF8BC115FF4741241
:100EE0000A6023E06F49884204D16B495FF0746265
:100EF0000A601BE06C49884203D16C495F4A0A6072
:100F000014E06B49884203D168495E4A0A600DE0EB
:100F10006849884203D165495C4A0A6006E066492F
:100F2000884203D161495FF03D520A60704710B4B6
:100F3000002203681A00614B1A400B68CC682343F7
:100F40004C6923438C692343CC6923430C6A2343B4
:100F50004C6A23438C6A23434C6B23438C6B23439F
:100F60001A43026043691A00D208D200CB6A0C6BA4
:100F700023431A4342610B6943604B6883608B686B
:100F8000C36010BC7047C9B2002904D0026852F097
:100F90000102026003E002685208520002607047DA
:100FA000010000200A68D20702D50122100001E0EA
:100FB00000221000C0B2704730B4020000200024AC
:100FC000344DAA4202D23E4D2B0001E03D4D2B0094
:100FD0008D0002D55D682C0001E01D682C003A4DA3
:100FE0002C400C4202D00125280001E000252800F9
:100FF000C0B230BC7047274B984202D2304B1A0027
:1010000001E0304B1A008B0003D52F4B0B40D3600F
:1010100002E02D4B0B409360704710B40B001B0691
:101020000BD5D2B2002A04D0436953F08003436148
:1010300003E0436933F08003436180290DD0D2B2CD
:10104000002A05D0036811F01E042343036004E066
:10105000036811F01E04A343036010BC7047000036
:101060001060024008600240286002404060024078
:1010700058600240706002400C6002403D00002059
:1010800088600240400F0020A060024000003D2028
:10109000B8600240106402400864024028640240C4
:1010A0004064024058640240706402400C64024094
:1010B00088640240A0640240B86402403F801CF093
:1010C00000600240006402407D0F7D0F70B582B069
:1010D00000240026DFF8B80A40210170DFF8B00ACA
:1010E00000214170DFF8A80A03218170DFF8A00A0F
:1010F0000021C170DFF8980A00210171DFF8900A21
:1011000001F062FADFF88C0A20210170DFF8840A0E
:1011100001214170DFF87C0A0C218170DFF8740A2C
:1011200001F06BFA1E2001F0D2FD01220F2100A870
:1011300001F0A3FA9DF800003B2801D001F0DBFD8F
:10114000DFF8540A4FF4FA710160E4B2002C35D193
:10115000DFF8440A0068002830D004222921DFF893
:101160003C0A01F08AFADFF8340A90F9000040B234
:10117000002806D5DFF8240A90F9000040B2454265
:1011800002E0DFF8180A0578DFF8100A90F902008B
:1011900040B2002806D5DFF8040A90F9020040B2F8
:1011A000464202E0DFF8F4098678EDB2102D02D253
:1011B000F6B2102EC9D301200400C6E7E4B2002C19
:1011C00010D0002001F006FE002001F078FE00287B
:1011D000FAD0002001F073FE0128FAD0002001F0BF
:1011E00003FE01E001F087FD73BD00B583B001216E
:1011F0000D2001F035F92020009001208DF8040029
:1012000000208DF8060000208DF8070002208DF8E0
:10121000050000A9DFF8880900F0C0FE2021DFF8F2
:10122000800900F01FFF0120009001208DF80400CC
:1012300000208DF8060000208DF8070002208DF8B0
:10124000050000A9DFF85C0900F0A8FE4FF400706B
:10125000009000208DF8040000208DF8060000208A
:101260008DF8070002208DF8050000A9DFF8380985
:1012700000F094FE0121DFF82C0900F0F3FE0120BC
:1012800001F025FD4FF40071DFF81C0900F0DBFED2
:10129000002801D101F02FFD4FF480600090002064
:1012A0008DF8040000208DF8060001208DF807005D
:1012B00002208DF8050000A9DFF8EC0800F06EFEB2
:1012C000012001F004FD4FF48061DFF8DC0800F03C
:1012D000BAFE002801D101F00EFD0121DFF8C4089B
:1012E00000F0BEFE4FF4C050009000208DF80400C6
:1012F00000208DF8060001208DF8070002208DF8EF
:10130000050000A9DFF8A00800F048FE4FF40070C7
:10131000009001208DF8040000208DF806000120C7
:101320008DF8070002208DF8050000A9DFF8780885
:1013300000F034FE4FF40071DFF86C0800F092FE0C
:10134000012001F0C4FC4FF40061DFF85C0800F0FC
:101350007AFE002807D04FF48051DFF84C0800F0E7
:1013600072FE002801D101F0C6FC4FF480500090BD
:1013700000208DF8040000208DF8060001208DF873
:10138000070002208DF8050000A9DFF81C0800F016
:1013900005FE4FF40060009001208DF8040000204D
:1013A0008DF8060001208DF8070002208DF8050059
:1013B00000A9DFF8F40700F0F1FD4FF40061DFF859
:1013C000E80700F04FFE012001F081FC4FF480514E
:1013D000DFF8D40700F037FE002801D101F08BFCC4
:1013E0004FF40060009000208DF8040000208DF87C
:1013F000060001208DF8070002208DF8050000A9E5
:10140000DFF8A40700F0CAFD4FF4805000900120DF
:101410008DF8040000208DF8060001208DF80700EB
:1014200002208DF8050000A9DFF87C0700F0B6FD6A
:101430004FF48051DFF8700700F014FE012001F036
:1014400046FC4FF40061DFF8600700F0FCFD002867
:1014500001D101F050FC4FF40070009001208DF894
:10146000040000208DF8060000208DF807000220FF
:101470008DF8050000A9DFF8300700F08FFD4FF46C
:101480000071DFF8240700F0EBFD002001F0A2FC62
:10149000002001F014FD0028FAD0002001F00FFD1B
:1014A0000028FAD1002001F09FFC4FF40071DFF812
:1014B000F80600F0D7FD2021DFF8E40600F0D0FDAB
:1014C0004FF48061DFF8E00600F0BDFD002801D098
:1014D00001F011FC4FF4C050009000208DF8040082
:1014E00000208DF8060002208DF8070002208DF8FC
:1014F000050000A9DFF8B00600F050FD4FF40070C1
:10150000009001208DF8040000208DF806000120D5
:101510008DF8070002208DF8050000A9DFF8880685
:1015200000F03CFD4FF40071DFF87C0600F098FD00
:10153000012001F0CCFB4FF40061DFF86C0600F0F5
:1015400082FD002807D04FF48051DFF85C0600F0E0
:101550007AFD002801D101F0CEFB4FF490500090AD
:1015600000208DF8040000208DF8060002208DF880
:10157000070002208DF8050000A9DFF82C0600F016
:101580000DFD4FF40060009001208DF80400002054
:101590008DF8060001208DF8070002208DF8050067
:1015A00000A9DFF8040600F0F9FC4FF40061DFF851
:1015B000F80500F055FD012001F089FB4FF40071A2
:1015C000DFF8E40500F03FFD002807D04FF480511C
:1015D000DFF8D40500F037FD002801D101F08BFBC6
:1015E0004FF42060009000208DF8040000208DF85A
:1015F000060002208DF8070002208DF8050000A9E2
:10160000DFF8A40500F0CAFC4FF4805000900120E0
:101610008DF8040000208DF8060001208DF80700E9
:1016200002208DF8050000A9DFF87C0500F0B6FC6B
:101630004FF48051DFF8700500F012FD012001F039
:1016400046FB4FF40071DFF8600500F0FCFC002859
:1016500007D04FF40061DFF8500500F0F4FC0028DB
:1016600001D101F048FB4FF4C050009000208DF8EC
:10167000040000208DF8060002208DF807000220EB
:101680008DF8050000A9DFF8200500F087FC4FF475
:101690000070009001208DF8040000208DF80600F5
:1016A00001208DF8070002208DF8050000A9DFF861
:1016B000F80400F073FC4FF40071DFF8EC0400F064
:1016C000D1FC07BD1CB5002401214FF4807000F04F
:1016D000F4FE01214FF4007000F0EFFE0120FEF750
:1016E00053FD4BF6803257210220FEF7B9FD00284A
:1016F00001D001F000FBDFF8B40400210170DFF835
:10170000B00400210160DFF8A8045FF440314160BB
:10171000DFF89C0400218160DFF894044FF47061CD
:10172000C160DFF88C0401F022FCDFF8880401F0CE
:101730000FFCDFF880045FF000710160DFF87404D3
:1017400000210171DFF86C0400214171DFF86404AD
:1017500000218160DFF85C0400210161DFF854049E
:1017600001210175DFF84C14DFF84C0401F0C8FBCF
:10177000DFF84014DFF8440401F0C2FB04200090BD
:1017800002208DF8050003208DF8040000208DF85C
:10179000070000A9DFF8100400F000FC082000900A
:1017A00000A9DFF8040400F0F9FBDFF814040021BD
:1017B0000180DFF8100400210180002004000323D1
:1017C00001220221DFF8F00301F0EFFB03230122E5
:1017D0000321DFF8E80301F0E8FB0121DFF8D8037B
:1017E00001F0D6FB0121DFF8D40301F0D1FBDFF8D3
:1017F000A8034FF4FA710160E4B2002C66D1DFF85F
:1018000098030068002861D0DFF8AC0301F044FCC5
:101810000221DFF8A40301F04FFC0028F8D0DFF824
:10182000980301F03EFCDFF8A0130880DFF88C037A
:1018300001F032FC0221DFF8840301F03DFC0028B6
:10184000F8D0DFF8780301F02CFCDFF88013088073
:10185000DFF874030088972812D3DFF8700300883C
:101860000A280DD2DFF8580300884FF4FA71884235
:1018700006D0DFF84C030088401CDFF844130880D2
:10188000DFF8440300880A2811D2DFF840030088FB
:1018900097280CD3DFF82C0300884FF4FA718842A4
:1018A00005D0DFF820030088401CC6490880C448E2
:1018B00000884FF4FA7188429ED1C24800884FF4E4
:1018C000FA71884298D10120040095E70021BA48B6
:1018D00001F05EFB0021B94801F05AFBE4B2002C94
:1018E00001D101F008FAFEF7D9FC0220FEF74CFC0A
:1018F0004BF6803264210220FEF7B2FC002801D0B2
:1019000001F0F9F9A94801210170AD4800210180D9
:10191000AC4800210180002004000121A64801F00C
:1019200037FB0121A54801F033FB9B484FF4FA71C6
:101930000160E4B2002C54D197480068002850D0D0
:101940009D4801F0A9FB02219B4801F0B5FB00284E
:10195000F9D0994801F0A5FB9B490880974801F010
:101960009BFB0221954801F0A7FB0028F9D0934882
:1019700001F097FB9549088093480088AB280ED367
:1019800092480088AB280AD38D4800884FF4FA713A
:10199000884204D08A480088401C894908808A48C7
:1019A00000880A280ED2894800880A280AD2854869
:1019B00000884FF4FA71884204D082480088401CA5
:1019C000804908807E4800884FF4FA718842B0D17F
:1019D0007C4800884FF4FA718842AAD101200400A3
:1019E000A7E7E4B2002C01D101F085F9002001F055
:1019F000F1F9002001F063FA0028FAD0002001F08C
:101A0000F3F913BD30B587B00024002501214FF450
:101A1000804000F043FD0121062000F021FD02205E
:101A20008DF8040000208DF8060001208DF80700D5
:101A300001208DF805004FF48060009000A96448F3
:101A400000F0ACFA05220A21614800F014FB0820DE
:101A5000009000A9534800F0A1FA05220321514843
:101A600000F009FB5B4800F0D7F84FF47A4004908F
:101A70001020ADF80A000020ADF80C000020ADF8F1
:101A800014004FF44070ADF808000020ADF80E00CF
:101A900002A9504800F00CF901214E4800F0F0F97D
:101AA0000A2001F014F93C484FF4FA710160EDB2DC
:101AB0001E2D18D238480068002814D0012145484E
:101AC00000F011FA002803D1334800680028F5D14E
:101AD000404800F0E3F904004FF6FF70A4B28442DE
:101AE000E5D16D1CE3E7EDB21E2D01D001F003F945
:101AF00007B030BD704700202C49097800292FD14C
:101B000035490988002915D134490988344A32F801
:101B10001110080031490988491C304A11802F49A9
:101B20000988302902D12D4900220A802A49012240
:101B30000A8029E02B490988294A32F81110080047
:101B400028490988491C274A1180264909883029D3
:101B500002D1244900220A801F4900220A8013E092
:101B60001E4909881E4A32F91110B1F500410800DA
:101B70001A490988491C194A1180184909883029CD
:101B800002D1164900220A8080B27047000000008E
:101B9000301000204C100020481000203810002089
:101BA000000C024000080240000002408F1000209C
:101BB00020100020081000200020014000210140DA
:101BC00084100020821000207E1000208010002051
:101BD00000040240003800408810002086100020D9
:101BE000C060000864010020FEE710B450F8041B38
:101BF00081B102681218001D50F8043BDC0744BF95
:101C0000A9F10104E31852F8044B43F8044B091FEF
:101C1000F9D1EBE710BC704710B504008A48844244
:101C20000AD101214FF4805000F065FC00214FF4EF
:101C3000805000F060FC1AE0844884420AD10121FF
:101C40004FF4804000F048FC00214FF4804000F049
:101C500043FC0CE07E48844209D101214FF400404E
:101C600000F03AFC00214FF4004000F035FC10BDBC
:101C700010B4002203881A0012F441520B884C88D9
:101C800023438C882343CC8823430C8923434C89EA
:101C900023438C892343CC8923431A430280838BBB
:101CA0004FF2FF74234083830B8A038210BC70477A
:101CB0002DE9F84F5FF0000802225FF0000E0123CB
:101CC0005FF0000C0024002500260027B0F81C90CF
:101CD0004FF2400A1AEA0909A0F81C905FF00209C5
:101CE000A0F82090B0F81C90C846D1F80890B9F13F
:101CF000020F06D15FF00009CE465FF002094A46A6
:101D000072E0B1F80490B9F1000F03D15FF001095E
:101D10004B4602E05FF002094B46DFF83891D9F8F4
:101D200000905FEA092909D5DFF82891D9F80090D9
:101D300039F40009DFF81CA1CAF80090DFF8189107
:101D4000D9F80090C9F388194E46DFF80C91D9F8FC
:101D50000090C9F302794F46DFF80091D9F800905E
:101D600019F03F094D46DFF8F890B9FBF5F906FB8D
:101D700009F9B9FBF7F94C46B1F806904FF4007A2F
:101D8000D1450FD15FEA14295FF00A0A0AFB09F96D
:101D9000D1F808A0B9FBFAF919F105091FFA89F978
:101DA000CC4611E09BB25FEA4319B4FBF9F95FF04E
:101DB0000A0A0AFB09F9D1F808A0B9FBFAF919F1E6
:101DC00005091FFA89F9CC465FF00A09BCFBF9FC4A
:101DD0001CF00109CE461FFA8EFEBCEB0E095FEA2D
:101DE00059094A465FEA0E2E92B2022A04D34FF4F2
:101DF000807992B24A4505D35FF002094A465FF006
:101E00000009CE46B1F8069059EA0E0959EA0209CE
:101E1000A0F82090CDF80080B1F80080B1F80290D1
:101E2000B1F804B0B1F80CA05AEA0B0A5AEA090951
:101E300059EA080858F40069DDF8008059EA0808F2
:101E4000A0F81C80BDE8F18F003001400038004050
:101E5000003C004008380240843802400438024008
:101E600000127A00C9B2002904D0028852F0400260
:101E7000028004E002884FF6BF731A400280704768
:101E8000C9B2002904D0828B52F48062828304E0BC
:101E9000828B4FF6FF331A408283704780897047E8
:101EA00081817047D2B2002A03D083880B4383809C
:101EB00002E083888B438380704730B40023002482
:101EC000C9B20D09EDB22B0001259D402C00D2B204
:101ED000002A03D085882543858002E08588A543B4
:101EE000858030BC70470200002013890B4202D06D
:101EF0000123180001E000231800C0B2704750F819
:101F0000041B61B150F8042BD30744BFA9F10103AE
:101F10009A18002342F8043B091FFAD1EFE77047F3
:101F200030B4002300221C4C2468230040F6FE74C9
:101F30008440A3430C684D682C438D682C43CD68C6
:101F40002C43220012FA00F42343134C236030BCCC
:101F50007047C9B2002907D00F4A12680123834095
:101F60001A430D4B1A6006E00B4A126801238340A6
:101F70009A43094B1A60704781B000220092064ACA
:101F80000092009A10F108039A180092009A89B200
:101F9000116001B07047000000740040F0B40022EE
:101FA0000023002400252A00102A4AD2012595404A
:101FB0002B000D681D402C009C4240D10568032673
:101FC0001700FFB27F00BE40B543056005680E797B
:101FD0001700FFB27F00BE40354305600D79012D2B
:101FE00002D00D79022D1AD1856803261700FFB2A1
:101FF0007F00BE40B543856085684E791700FFB20B
:102000007F00BE4035438560456801269640B54354
:10201000456045688E799640B6B235434560C568DF
:1020200003261700FFB27F00BE40B543C560C568F8
:10203000CE791700FFB27F00BE403543C560521C09
:10204000B2E7F0BC70470200002013699BB20B425C
:1020500002D00123180001E000231800C0B270472D
:102060000183704741837047D2B2002A01D00183B7
:1020700000E041837047F0B400230024D2B211F095
:102080000705EDB2AD0012FA05F52B0089B2CD10AF
:1020900010EB850589B2CE1010EB8606366A0F2745
:1020A00011F0070C5FFA8CFC5FEA8C0C17FA0CF746
:1020B000BE432E6289B2CD1010EB85052D6A1D43FB
:1020C0002C0089B2CD1010EB85052C62F0BC704756
:1020D00010B50400514884420AD101215FF4001078
:1020E00000F0FAF900215FF4001000F0F5F91AE0B1
:1020F0004B4884420AD101215FF4800000F0ECF9E2
:1021000000215FF4800000F0E7F90CE045488442CC
:1021100009D101215FF4000000F0DEF900215FF435
:10212000000000F0D9F910BD2DE9F04385B004009E
:102130000D005FF0000900260427DFF8EC80A0887E
:1021400081464FF6C07010EA090900A800F008F9AE
:10215000029880463548B8FBF0F0060056EA0909B7
:10216000A4F8049020884FF6FE71084020800020DB
:10217000814628682E4988420ED228684000B8FB64
:10218000F0F00700BFB2042F01D20420070057EA85
:102190000909701C208426E0E8884BF6FF7188420C
:1021A00006D1286803214843B8FBF0F0070007E098
:1021B000286819214843B8FBF0F0070057F480471E
:1021C000380501D157F0010757F4004050EA0909DA
:1021D000B6B24FF4967000FB06F04FF47A7190FBA4
:1021E000F1F0401C2084A4F81C90208850F00100DD
:1021F0002080208881464FF6F53010EA0909A8882A
:102200006989084350EA0909A4F80090A889298936
:102210000843208105B0BDE8F08300000054004071
:1022200000580040005C004000127A0040420F005D
:10223000A1860100C9B2002904D0028852F001022F
:10224000028004E002884FF6FE731A400280704755
:10225000C9B2002905D002884FF480731A43028066
:1022600004E002884FF6FF631A4002807047C9B24B
:10227000002905D002884FF400731A43028004E05D
:1022800002884FF6FF531A4002807047D2B2002AEC
:1022900002D051F0010101E011F0FE01C9B201824A
:1022A0007047C9B2002904D0028852F480620280CB
:1022B00004E002884FF6FF331A4002807047C9B22B
:1022C00001827047008AC0B2704770B402000023D8
:1022D000002400250020968A3400168B35002D043A
:1022E00055EA04063602360A330011EA03068E4226
:1022F00002D10126300001E000263000C0B270BCDF
:10230000704782B002000020002301930023009355
:1023100000920B0F01930902090A019B002B03D0C5
:10232000009B1433009303E0090C009B18330093C7
:10233000009B1B680B4202D00123180001E0002320
:102340001800C0B202B0704700220B021B0A1A002C
:10235000D343838270477047704770477047704718
:10236000F0B4002100220023022400250226DFF819
:10237000A4713F6817F00C0739000F00002F04D03C
:10238000042F06D0082F08D03CE0DFF890710760DA
:102390003BE0DFF88C71076037E0DFF87C713F6865
:1023A000C7F380573D00DFF870713F6817F03F07B3
:1023B0003E00002D0DD0DFF86871B7FBF6F7DFF8AF
:1023C00058C1DCF800C0CCF3881C0CFB07F73B00BD
:1023D0000CE0DFF84871B7FBF6F7DFF83CC1DCF83A
:1023E00000C0CCF3881C0CFB07F73B00DFF828711A
:1023F0003F68C7F301477F1C7F003C00B3FBF4F745
:10240000076002E0DFF814710760DFF808713F68C9
:1024100017F0F00739000909DFF80871CF5D3A00BD
:102420000768D7404760DFF8EC703F6817F4E05763
:102430003900890ADFF8EC70CF5D3A004768D74071
:102440008760344F3F6817F460473900490BDFF865
:10245000D470CF5D3A004768D740C760F0BC704782
:10246000C9B2002905D0304A126802432E4B1A60C7
:1024700004E02D4A126882432B4B1A607047C9B2A0
:10248000002905D0294A12680243284B1A6004E04B
:10249000264A12688243254B1A607047C9B2002948
:1024A00005D0234A12680243214B1A6004E0204AF7
:1024B000126882431E4B1A607047C9B2002905D0CA
:1024C0001C4A126802431B4B1A6004E0194A126846
:1024D0008243184B1A607047C9B2002905D0164ACA
:1024E00012680243144B1A6004E0134A12688243D4
:1024F000114B1A607047C9B2002905D00F4A126803
:1025000002430E4B1A6004E00C4A126882430B4BE4
:102510001A60704708380240043802400024F40072
:1025200000127A000C01002030380240343802409A
:1025300040380240443802402038024024380240EB
:102540001C4901431C4A11607047F0B4002300216C
:102550000F22C478002C21D0174C246814F4E064B6
:10256000D4F5E064240A2300D3F104042100D2B29C
:102570001A4144788C4023008478144023431B0183
:1025800004780E4D6355047864110D4D01260778CB
:1025900017F01F07BE4045F8246009E00478641175
:1025A000084D0126077817F01F07BE4045F8246044
:1025B000F0BC70470000FA050CED00E000E400E01C
:1025C00000E100E080E100E010B582B004000020EE
:1025D0008DF8000000F074F8607821780843E17805
:1025E000084321790843A17808438DF800000122AF
:1025F000202100A800F022F813BD10B582B004001D
:1026000000208DF800000122212100A800F035F8FB
:102610009DF8000010F0D0008DF800009DF800003B
:10262000217862781143A278114308438DF80000A5
:102630000122212100A800F001F813BD70B50400AB
:102640000D001600B6B2022E01D355F04005082148
:102650008448FFF707FD2800C0B200F0CAF8B6B200
:10266000012E05D3207800F0C4F8761E641CF6E72E
:1026700008217C48FFF7F4FC70BD70B504000D0024
:102680001600B6B2022E02D355F0C00501E055F097
:10269000800508217348FFF7E5FC2800C0B200F070
:1026A000A8F8B6B2012E06D3002000F0A2F82070E0
:1026B000761E641CF5E708216A48FFF7D1FC70BD5F
:1026C00000B587B001214FF48050FFF7F6FE0121DD
:1026D0000120FFF7C5FE01211020FFF7C1FE0121F7
:1026E0001020FFF7BDFE01211020FFF7B9FE0522E3
:1026F00005215D48FFF7BFFC052206215A48FFF778
:10270000BAFC052207215848FFF7B5FC02208DF8D6
:10271000040000208DF8060002208DF8070002203A
:102720008DF805002020009000A94F48FFF736FCE7
:102730008020009000A94C48FFF730FC402000901A
:1027400000A94948FFF72AFC4848FFF765FA00202E
:10275000ADF808000020ADF80C000020ADF80E0028
:102760000020ADF810004FF40070ADF81200082002
:10277000ADF814000020ADF816000720ADF81800E1
:102780004FF48270ADF80A0002A93848FFF770FADA
:1027900001213648FFF766FB0820009001208DF8E4
:1027A000040000208DF8060002208DF8050000A925
:1027B0002C48FFF7F3FB08212A48FFF751FC0120C2
:1027C000009000208DF8040000208DF80600022003
:1027D0008DF8050000208DF8070000A92148FFF7BB
:1027E000DDFB0220009000A91E48FFF7D7FB07B0D1
:1027F00000BD10B504001E484FF480510160022155
:102800001A48FFF770FB00280AD119480068411EDA
:10281000174A11600028F2D100F07EFAC0B21EE023
:10282000E4B2210089B21148FFF73AFB10484FF497
:102830008051016001210D48FFF755FB00280AD1A6
:102840000B480068411E0A4A11600028F2D100F0CE
:1028500063FAC0B203E00548FFF720FBC0B210BD29
:102860000000000000100240000002400030014063
:102870005001002040B2002809D540B210F00F02EC
:10288000DFF8AC34D2180B0102F8043C04E040B28B
:10289000DFF8A0240B018354704710B50400B4F195
:1028A000807F01D3012013E02002000A401EDFF8E0
:1028B000881408600F215FF0FF30FFF7DBFFDFF8BF
:1028C0007C0400210160DFF878040721016000200A
:1028D00010BD00B585B00121002000F09FFA002056
:1028E00000F056FA012000F053FA022000F050FAEE
:1028F000032000F04DFA00A8FFF732FD0198642193
:10290000B0FBF1F0FFF7C9FF002000F0D8FA012872
:1029100067D1002000F05EFA012000F05BFA02208F
:1029200000F058FA032000F055FADFF818040068A8
:1029300000280FD1DFF810044FF4967101600020D9
:1029400000F0BDFA01281DD1DFF8FC030068002863
:10295000F5D117E0DFF8F0034FF496710160002025
:1029600000F0ADFA012804D1DFF8DC03006800288C
:10297000F5D1002000F0A3FA002803D1DFF8C80346
:1029800000210160DFF8C0030068002826D1002084
:1029900000F02AFA012000F027FA022000F024FAC1
:1029A000032000F021FA002000F089FA0128FAD073
:1029B00000F090FBFEF78AFBFEF717FCFEF782FEA5
:1029C000FFF720F80021DFF87C0300F0F3FB002084
:1029D00000F014FA0A2000F07AF9F8E700F006F89F
:1029E00001E000F003F8002005B000BD1FB5002491
:1029F000DFF8580300210170DFF854030021017053
:102A0000002000F0C5F9012000F0C2F9022000F01A
:102A1000BFF9032000F0BCF900A8FFF7A1FC019862
:102A20006421B0FBF1F0FFF738FF002000F0DCF983
:102A3000012000F0D9F9022000F0D6F9032000F0BF
:102A4000D3F9C3480078002834D1002000F0D6F92B
:102A50000A2000F03CF9012000F0D0F90A2000F033
:102A600036F9022000F0CAF90A2000F030F90320FC
:102A700000F0C4F90A2000F02AF9641CE4B2102C1A
:102A8000DFD100200400E4B2102C10D2002000F0AE
:102A9000B5F9012000F0B2F9022000F0AFF90320EF
:102AA00000F0ACF90A2000F012F9641CEBE70020FA
:102AB0000400C6E7002000F002FA0128FAD0A4487A
:102AC0000021017000F06DF800220021A14800F003
:102AD0006BFD002204219F4800F066FD00220821C2
:102AE0009C4800F061FD00220C219A4800F05CFD3A
:102AF000994840210170984800214170964807216B
:102B0000817095480021C17093480021017192485D
:102B1000FFF75AFD1E2000F0DAF88C480121017001
:102B20008E48202101708D48012141708B480C2175
:102B300081708A48FFF761FD062229218848FFF746
:102B40009CFD8848864991F900100170844890F9ED
:102B5000020085490870824890F904008349087092
:102B600000F014F87A4800780028FBD0002000F02C
:102B7000A6F90128FAD000217D48FFF773F97D48B6
:102B800000F095FE7B4801F07AFC31E780B57A4889
:102B900000907A4B7A4A0121764801F09BFC002094
:102BA00002BD00B58BB001210420FFF777FC0121A5
:102BB0000820FFF755FC4FF47040009002208DF87C
:102BC000040000208DF8060000208DF80700032087
:102BD0008DF8050000A96B48FFF7E0F902220C21EF
:102BE0006848FFF748FA02220D216648FFF743FACA
:102BF00002220E216348FFF73EFA02220F216148AC
:102C0000FFF739FA6048006840084FF4FA61B0FBFA
:102C1000F1F0401E5D49088040F2CF7003905B48A0
:102C20000088ADF808000020ADF810000020ADF8D5
:102C30000A0002A9474800F029FB0121454800F09D
:102C40005CFB6020ADF814000120ADF816004FF4D5
:102C50007A7007900020ADF8200005A93D4800F0EB
:102C600068FB002200213B4800F09EFC0821394807
:102C700000F074FC05A9374800F09AFB00220421FB
:102C8000344800F091FC0821324800F070FC05A99E
:102C9000304800F0D3FB002208212E4800F084FCCD
:102CA00008212C4800F06DFC05A92A4800F00BFC17
:102CB00000220C21274800F077FC0821254800F06D
:102CC00069FC0121234800F026FB0BB000BD01B4D4
:102CD0001D48009901601C4800680028FBD101B024
:102CE000704719480068002804D017480068401E43
:102CF00015490860704780B50221582000F0FAF9A4
:102D00005FF055310F4800F055FA022000F076F8D8
:102D10000520FFF7DCFFF8E780B50C4800780028B5
:102D200003D1FFF7E8FF002000E0FEE702BD00004E
:102D300018ED00E000E400E014E000E018E000E03E
:102D400010E000E0FCFF0F08481000208A1000206F
:102D50008B10002000080040301000204C10002094
:102D6000381000208C1000208D1000208E100020C4
:102D70000030014068090020B80000204400002015
:102D80009C000020000C0240540100207C10002018
:102D90001CB504000121E4B24F4850F82400FFF7AD
:102DA0005FFBE4B24D4830F81400009001208DF82C
:102DB000040000208DF8060001208DF80700022095
:102DC0008DF8050000A9E4B2454850F82400FFF74B
:102DD000E5F813BDC0B2424951F82010C0B23F4AD5
:102DE00032F810200A837047C0B23D4951F82010D4
:102DF000C0B23A4A32F810204A837047C0B238490C
:102E000051F820104969C0B2344A32F810205140BC
:102E1000C0B2334A52F820205161704730B585B0B6
:102E200004000D000121E4B22E4850F82400FFF701
:102E300017FB01214FF48040FFF73FFB00208DF886
:102E4000100000208DF81300E4B2274830F8140079
:102E5000039003A9E4B2254850F82400FFF79EF838
:102E6000EDB2012D29D1E4B22148215CE4B2214820
:102E7000205C01F093FCE4B21F4830F8140001908C
:102E800000208DF8080008208DF8090001208DF839
:102E90000A0001A801F0ACFCE4B21848205C8DF8EF
:102EA00000000F208DF801000F208DF80200012096
:102EB0008DF8030000A8FFF748FB05B030BD10B542
:102EC0000400E4B2084830F81410E4B2074850F89F
:102ED0002400FFF7B8F810BD2862000890620008CF
:102EE000FC00002098620008D23000081C0100207D
:102EF000BF600008BE600008FA570008D2610008F1
:102F000030B40023002244682300674C23400C792E
:102F10000D6855EA04242343436084682300634C0E
:102F200023400C69CD682C438D682C434D7954EABD
:102F3000450423438360C46A230033F470030C7D8B
:102F4000641E2243D2B253EA0253C36230BC7047BC
:102F50000021016000210171002141710021816087
:102F60000021C1600021016101210175704700212C
:102F70004F4A126811004F4A1140026843681A43D1
:102F800083681A43C3681A431143494A1160704762
:102F9000C9B2002904D0826852F00102826003E0C5
:102FA00082685208520082607047F0B40025002405
:102FB000C9B20A2916D3C66835000726B1F10A0737
:102FC0005FF0030C0CFB07F7BE403400A543DBB2F7
:102FD000B1F10A0603277E4313FA06F634002543AF
:102FE000C56011E0066935000726032707FB01F7D6
:102FF000BE403400A543DBB2032606FB01F613FAFC
:1030000006F6340025430561D2B2072A14D2466B76
:1030100035001F26571E5FF0050C0CFB07F7BE405E
:103020003400A543C9B2561E05277E4311FA06F6A1
:103030003400254345632DE0D2B20D2A14D2066B2D
:1030400035001F26D71F5FF0050C0CFB07F7BE40AD
:103050003400A543C9B2D61F05277E4311FA06F6F0
:1030600034002543056315E0C66A35001F26B2F11A
:103070000D075FF0050C0CFB07F7BE403400A543BD
:10308000C9B2B2F10D0605277E4311FA06F63400E7
:103090002543C562F0BC7047816851F08041816072
:1030A0007047C06C80B27047FFFEFFFCFDF7FFC0A9
:1030B00004230140E030FCFF020000201368DBB273
:1030C0000B4202D00123180001E000231800C0B217
:1030D00070470100DFF878010068002809D5DFF8A3
:1030E0007401DFF874110160DFF86801DFF86C111A
:1030F00001607047F8B504000D0000260827EDB206
:10310000002D02D10020060010E0EDB2012D03D108
:103110004FF48070060009E0EDB2022D03D14FF4A8
:103120000070060002E04FF44070060000F09AF8CC
:103130000700FFB2082F3AD1DFF81401006830F41D
:103140004070DFF80C110860DFF8040100683043BC
:10315000DFF8FC100860DFF8F800006830F0F800D5
:10316000DFF8EC100860DFF8E800006854F00201B6
:103170000843DFF8DC100860DFF8D400006850F482
:103180008030DFF8CC10086000F06CF80700DFF842
:10319000C000006830F00200DFF8B4100860DFF80B
:1031A000B000006830F0F800DFF8A41008603800C4
:1031B000C0B2F2BD70B504000D00082600F052F850
:1031C0000600F6B2082E1CD12148006830F4407089
:1031D0001F4908601E4800684FF4007108431C49ED
:1031E00008601B48006850F001001949086025601C
:1031F00000F038F8060016480068400840001449FE
:1032000008603000C0B270BD082015490968C903C4
:1032100002D50121080018E011490968C90602D544
:103220000521080011E00E49096811F0EF0100299D
:1032300002D00621080008E009490968890702D57B
:103240000721080001E008210800C0B27047000013
:10325000103C0240043C024023016745AB89EFCD9E
:103260000C3C024080B508208DF80000FFF7CCFF31
:103270008DF800009DF80000012804D1FFF7C4FF7D
:103280008DF80000F6E79DF8000002BD00220388DB
:103290001A00A74B98420ED0AB4B98420BD0B0F11E
:1032A000804F08D0A34B984205D0A34B984202D040
:1032B000A24B984204D14FF68F731A404B881A43A1
:1032C0009F4B984207D09F4B984204D04FF6FF4344
:1032D0001A400B891A4302804B68C3620B8803852E
:1032E000934B984202D0984B984201D18B7A038637
:1032F000012383827047C1627047C9B2002904D09C
:10330000028852F08002028004E002884FF67F7348
:103310001A4002807047C9B2002904D0028852F0D6
:103320000102028004E002884FF6FE731A40028018
:10333000704770B4002300240022058C4FF6FE76FF
:1033400035400584058C2C0085882A00058B2B00D0
:103350004FF68F752B404FF6FC752B400D882B4395
:103360004FF6FD752C408D892C434D882C43704DB4
:10337000A84202D0744DA84213D14FF6F7752C40E5
:10338000CD892C434FF6FB752C408D882C434FF68E
:10339000FF652A404FF6FF552A400D8A2A434D8A81
:1033A0002A43828003838D684563048470BC704720
:1033B00070B4002300240022058C4FF6EF763540D0
:1033C0000584058C2C0085882A00058B2B0048F687
:1033D000FF752B404FF6FF452B400D8853EA052320
:1033E0004FF6DF752C408D8954EA05144D8854EA58
:1033F00005144F4DA84202D0534DA84217D14FF6A5
:103400007F752C40CD8954EA05144FF6BF752C40CA
:103410008D8854EA05144FF6FF352A404FF2FF75A8
:103420002A400D8A52EA85024D8A52EA850282803C
:1034300003838D688563048470BC704770B4002377
:1034400000240022058C4FF6FF6635400584058C6C
:103450002C0085882A00858B2B004FF68F752B401A
:103460004FF6FC752B400D882B434FF6FF552C4033
:103470008D8954EA05244D8854EA05242C4DA84230
:1034800002D0314DA84217D14FF2FF752C40CD89A3
:1034900054EA05244FF6FF352C408D8854EA052464
:1034A0004EF6FF752A404DF6FF752A400D8A52EA06
:1034B00005124D8A52EA0512828083838D68C563A6
:1034C000048470BC704770B4002300240022058C73
:1034D0004EF6FF7635400584058C2C0085882A0041
:1034E000858B2B0048F6FF752B404FF6FF452B4090
:1034F0000D8853EA05234DF6FF752C408D8954EA5B
:1035000005344D8854EA0534094DA84202D00E4DC9
:10351000A84205D14BF6FF752A400D8A52EA851262
:10352000828083838D680564048470BC70470000CA
:10353000000001400004004000080040000C004072
:103540000010004000140040000401404163704737
:1035500081637047C1637047016470470022038B29
:103560001A004FF6F7731A400A430283704700228D
:10357000038B1A004FF2FF731A4052EA01220283B2
:1035800070470022838B1A004FF6F7731A400A43E4
:10359000828370470022838B1A004FF2FF731A4018
:1035A00052EA01228283704730B4002301248C4008
:1035B0002300048C9C430484048C92B212FA01F51B
:1035C0002C43048430BC7047F8B504000D0029007A
:1035D000C9B2200000F0F6F9012084F812010020A1
:1035E00084F81301002006006078864213D2282058
:1035F00000FB064000F218100700012078703E70B2
:10360000FE800020F8704020B8600020F8600020A4
:103610007861761CE8E7002006006078864213D2C5
:10362000282000FB064000F2703007000020787070
:103630003E70FE800020F8704020B8600020F860E6
:1036400000207861761CE8E7200000F0D5FA200021
:1036500000F029FA0021200000F026FB200000F0F5
:1036600064FB200000F0B9FAF1BD2DE9F04104003F
:103670000D0016001F00EDB2280609D5EDB215F0B9
:103680007F00282101FB004000F21810804608E06E
:10369000EDB215F07F00282101FB004000F27030F0
:1036A000804615F07F0088F80000C5F3C01088F848
:1036B0000100B6B2C8F8086088F8037098F80100F5
:1036C000002803D098F80000A8F80600FFB2022FE7
:1036D00002D1002088F804004146200000F067FC79
:1036E0000020BDE8F08170B504000D00EDB22806A1
:1036F00009D5EDB215F07F00282101FB004000F252
:103700001810060008E0EDB215F07F00282101FB3B
:10371000004000F27030060015F07F003070C5F3F5
:10372000C01070703100200000F07EFC002070BDE1
:103730002DE9F04104000D0016001F00EDB215F058
:103740007F00282101FB004000F270308046C8F85D
:103750000C60BFB2C8F814700020C8F81800002030
:1037600088F8010015F07F0088F80000E078012853
:1037700001D1C8F8106098F80000002804D1414633
:10378000200000F043FD03E04146200000F078FCFB
:103790000020BDE8F0812DE9F04104000D00160085
:1037A0001F00EDB215F07F00282101FB004000F260
:1037B00018108046012088F8010015F07F0088F875
:1037C0000000C8F80C60C8F810600020C8F81800A5
:1037D000C8F8147098F80000002804D14146200071
:1037E00000F014FD03E04146200000F049FC0020F9
:1037F000BDE8F08170B504000D00EDB2280609D5D2
:10380000EDB215F07F00282101FB004000F21810F6
:10381000060006E0EDB2282000FB054000F2703003
:1038200006000120B07015F07F003070C5F3C010A5
:10383000C0B210F0010070703100200000F07CFD7B
:10384000002070BD70B504000D00EDB2280609D54A
:10385000EDB215F07F00282101FB004000F21810A6
:10386000060006E0EDB2282000FB054000F27030B3
:1038700006000020B07015F07F003070C5F3C01056
:10388000C0B210F0010070703100200000F078FD2F
:10389000002070BD10B400231A00C9B261F30A12EF
:1038A00003691B6813430469236010BC704738B573
:1038B000040020694068050055F002052069456054
:1038C000032001F058F831BD00221100C2685FF0FA
:1038D000FF335360C2685FF0FF33536151F0004122
:1038E00051F40061C2689161704770B582B0040004
:1038F0000025002600200090032001F030F8E06849
:1039000000690090761CDFF89803864201D30020FE
:103910001DE000980028EFD500200600009850F028
:1039200001000090E06800990161E0680069009082
:10393000761CDB48864205D2009810F00100C0B228
:103940000028F2D1032001F00AF82800C0B276BDA9
:10395000F0B504000020E578002D1BD100250026DD
:103960009BB213F1030C5FF0040E9CFBFEFC65465A
:10397000D2B214EB820CDCF8D0C067465FF0000CCA
:103980006646AE4206D2D1F800C0C7F800C0761C29
:10399000091DF6E7C0B2F0BD70B4030008000021B5
:1039A00092B2D41C042594FBF5F4D3F8D050002631
:1039B0003100A14204D22E680660491C001DF8E7C0
:1039C00070BC704770B40200002400200025D57040
:1039D0000125957040259580C9B201290ED15FF06F
:1039E000A0452C000125D5720825157004255570B9
:1039F0004FF4A075D580022515720DE0C9B20029DB
:103A00000AD1A84D2C000025D5720C25157006256D
:103A100055704FF4A065D580D46014F5006515612C
:103A200000252B005578AB420FD212EB830514EB27
:103A3000431616F51066AE6112EB830514EB4316C0
:103A400016F530666E655B1CECE714F58065556114
:103A500014F58865C2F8CC5000252B001578AB42D0
:103A600009D212EB830514EB431616F5A066C5F8D0
:103A700090605B1CF2E700252B001578AB420BD25F
:103A800012EB83054FF4805606FB034616F580566D
:103A9000C5F8D0605B1CF0E714F56065C2F80C5106
:103AA000C0B270BC70472DE9F84304000025002027
:103AB00006000020070000208146207A01282FD12F
:103AC000E068806B070037F48037607A002801D007
:103AD00057F48017E068876300200600E068C0683C
:103AE000060036F0400636F4800656F0100636F032
:103AF000080636F0800636F4003636F40026E06814
:103B0000C6602000FFF7F1FEE078012853D10520C0
:103B100060F3440959F02009E068C0F808904AE0D1
:103B2000E068C068060056F04006E068C660200005
:103B3000FFF7DBFE0020070057F48037207A0328C8
:103B400001D157F4003757F4802757F4002757F472
:103B50000017607A002801D057F48017E068876367
:103B6000142000F008FFE068C0680600207A0328EF
:103B700001D156F48036E068C660207A03281AD155
:103B8000E068006B8046012060F39B6838F4000811
:103B900058F080582D2060F31648E068C0F8308057
:103BA000C82000F0E8FE58F40008E068C0F8308053
:103BB000C82000F0E0FEE07801280AD1E0688068C3
:103BC0008146052060F3440959F02009E068C0F8F7
:103BD00008902800C0B2BDE8F28310B401000020B4
:103BE00000231A0052F00102CB689B681343CC6893
:103BF000A360C0B210BC704710B4010000200023C5
:103C00001A0052F00102CB689B689343CC68A36012
:103C1000C0B210BC7047F8B504000D0000260027A4
:103C200000200090009850F020000090009865F36C
:103C30008A100090E06800990161E06800690090D6
:103C40007F1C1748874204D20098C0F34010C00779
:103C5000F3D4032000F083FE3000C0B2F2BD70B593
:103C600082B004000025002600200090009850F04B
:103C700010000090E06800990161E0680069009020
:103C8000761C0748864204D20098C0F30010C00793
:103C9000F3D4032000F063FE2800C0B276BD00001C
:103CA000410D030000000440F8B504000D0000269B
:103CB000E068C068070037F0005737F08047EDB282
:103CC000012D02D157F0005704E0EDB2002D01D1D3
:103CD00057F08047E068C760322000F04CFE3000AB
:103CE000C0B2F2BDC068406910F00100704710B565
:103CF00004002000FFF7F6FF012801D0012000E0BA
:103D00000020C0B210BD01000020CA685269100036
:103D1000CA6892691040704703691B681A00C9B2EB
:103D200061F3010203691A6070472DE9F84F04003E
:103D300000208DF8000000208246002007000020AF
:103D400080460020814600200500D4F80C010021A7
:103D5000016020690068070037F4C05720690760D8
:103D6000E07A01282CD103212000FFF7D5FFE0687D
:103D700080214162202060F31F48802060F30F08FB
:103D8000E068C0F8288018EB184060F30F09802025
:103D900060F31F49E068C0F8049119EB194060F323
:103DA0000F09202060F31F49E068C0F8089119EB63
:103DB000194060F30F091FFA89F9E068C0F80C9107
:103DC00010212000FFF727FF2000FFF748FF2069A0
:103DD0000021016120690021416120695FF0FF310C
:103DE000816120690021C16100208346607883459C
:103DF00022D214EB8B00806900688246BAF1000F72
:103E000006D5002082465AF0804A5AF0006A01E046
:103E10000020824614EB8B008069C0F800A014EBF0
:103E20008B0080690021016114EB8B008069FF2108
:103E300081601BF1010BD9E7002083466078834540
:103E400020D214EB8B01496D09680800002806D5C3
:103E50000021080050F0804050F0006001E0002197
:103E6000080014EB8B01496D086014EB8B01496D60
:103E700000220A6114EB8B01496DFF228A601BF15D
:103E8000010BDBE7002005004FF48070054320693B
:103E90000069A843284321690861E07801280FD10F
:103EA0000020060056F0010656F00206402060F39E
:103EB0008A0656F48036402060F35946206906632E
:103EC000200000F004F89DF80000BDE8F28F70B506
:103ED0000400002500200600E06800218161E06800
:103EE0005FF0FF3141612000FFF7EEFCE078002831
:103EF00001D156F0100656F4006656F4805656F47A
:103F0000005656F4802656F4002656F0080656F45D
:103F1000801656F40016E0688069B0433043E168CB
:103F200088612800C0B270BD010000200B699B6849
:103F30001A00530813F00303002B05D0022B09D0FD
:103F400005D3032B03D007E00323180004E002236A
:103F5000180001E001231800C0B2704770B40100DE
:103F6000002000252C000D69AD682A008D692D68A0
:103F70002B00550815F00305002D04D0022D05D0A7
:103F800001D3032D05D1DB0ADB0202E0032565F333
:103F90000A038D692B604FF480752C430D696D68A1
:103FA000A54325430E697560C0B270BC7047F0B47C
:103FB0000200002000263300002634004E78012E37
:103FC0000BD10E7812EB8606B6693500012691F901
:103FD0000070BE4066F30F040AE00E7812EB86060E
:103FE000766D3500012691F90070BE4066F31F44DE
:103FF0002E683300C3F3C036F6070DD48E6866F31F
:104000000A03CE7866F39343CE8866F3995353F050
:10401000805353F400432B601669F66926431769F1
:10402000FE61C0B2F0BC7047F0B402000020002670
:104030003300002634004E78012E0BD10E7812EB9F
:104040008606B6693500012691F90070BE4066F318
:104050000F040AE00E7812EB8606766D3500012615
:1040600091F90070BE4066F31F4433F400432B60A7
:104070001669F669A6431769FE61C0B2F0BC7047C5
:104080002DE9F04704000D0000265FF0000A002033
:10409000070000208046687801286BD1287814EB4F
:1040A0008000806900680700287814EB8000806930
:1040B000006980466869002807D15FEAD8485FEA4E
:1040C000C848012060F3DC4811E0686960F3120819
:1040D0006869A9680818401EA968B0FBF1F060F390
:1040E000DC48E878012802D1012060F35E78287866
:1040F00014EB80008069C0F81080E078012806D1B8
:10410000287814EB800080692969416110E0E87823
:1041100001280DD0686900280AD0012095F9001007
:10412000884082462069406B5AEA00002169486352
:10413000E87801280AD12069806881465FEAC95081
:1041400002D457F0005701E057F0805757F08067CE
:1041500057F00047287814EB800080690760E87802
:1041600001284FD16B699BB22A78E9682000FFF7DC
:10417000EFFB47E0287814EB8000406D00680700F3
:10418000287814EB8000406D00698046686900283B
:1041900006D1A86860F31208012060F3DC480EE045
:1041A0006869A9680818401EA968B0FBF1F060F3BF
:1041B000DC48C8F3C940A968484360F3120828786E
:1041C00014EB8000406DC0F81080E078012805D124
:1041D000287814EB8000406D29694161E878012856
:1041E00007D16879002802D057F0005701E057F056
:1041F000805757F0806757F00047287814EB80000D
:10420000406D07603000C0B2BDE8F087FCB402002A
:104210000020002500263300002600964E78012E4F
:1042200049D19669340026683300266900964E69A4
:10423000002E09D1009EF609F60100960126009F86
:1042400066F3D447009715E08E684F69BE4207D2E7
:104250008E684E618E68009F66F30607009704E043
:104260004E69009F66F3060700970126009F66F3DC
:10427000D4470097009E2661D678012E05D10E788E
:1042800012EB8606B6690F69776153F0806353F0CD
:1042900000432360D678002E4BD14E69002E48D0C3
:1042A000012691F90070BE4035431669766B2E43A6
:1042B00017697E633DE00E7812EB8606766D3668F0
:1042C00033000E7812EB8606766D366900964E69DD
:1042D000002E0AD18E68009F66F30607009701261C
:1042E000009F66F3D44700970BE08E684E618E689E
:1042F000009F66F3060700970126009F66F3D447E8
:1043000000970E7812EB8606766D009F3761D6789F
:10431000012E05D10E7812EB8606766D0F69776156
:1043200053F0806353F000430E7812EB8606766DEF
:104330003360C0B2F6BC704730B4020000200025E4
:104340002C004D78012D0ED10D7812EB8505AD694D
:104350002B001D682C00002C01D554F0804454F42F
:1043600000141C6009E00D7812EB85056D6D2B00C3
:104370001D682C0054F400141C60C0B230BC70479F
:1043800030B40200002000252C004D78012D05D10D
:104390000D7812EB8505AD692B0004E00D7812EB6A
:1043A00085056D6D2B001D682C0034F40014CD784C
:1043B000032D02D0CD78022D01D154F080541C6021
:1043C000C0B230BC704701000A69926910000A69E6
:1043D000D2691040000C70470200C9B212EB810391
:1043E0005B6D9B68180013695B691840704701009A
:1043F0000A69926910000A69D269104080B2704758
:1044000082B000210091009951F0404100910121BA
:10441000009A61F3D44200921821009A61F30602D7
:104420000092416D009A0A61C17801290FD10022E2
:104430001100426D00F2C8535361426D12681100C1
:1044400051F000415FF080221100426D116002B016
:104450007047817A002911D003699B68190011F017
:104460000103DBB2002B09D0D0F80C311A0032F076
:10447000020252085200D0F80C311A60704738B569
:104480000400012084F812010020050060788542B4
:104490000BD214EB85008069FF21816014EB85004D
:1044A000406DFF2181606D1CF0E7206900210161F2
:1044B00020690021416120690021C16120695FF00C
:1044C000FF3181612000FFF7CAFB10212000FFF7B8
:1044D000A2FB31BD2DE9F04104000D0016001F00C4
:1044E000DDF81880200000F0D5F9200000F014F865
:1044F000C4F8E075C4F8E485C4F8E8652900C9B2D9
:104500002000FFF761F8D4F8E40500688047200038
:1045100000F00EFABDE8F0810100002070471CB5E4
:10452000040000A9200000F025FD9DF8000010F017
:104530001F00C0B2002803D002280BD005D30EE024
:1045400000A9200000F020FA10E000A9200000F0EF
:1045500059FA0BE000A9200000F07CFA06E09DF873
:10456000000010F080012000FFF744F9002016BD84
:1045700070B504000D00EDB2002D34D104F270309E
:10458000060094F8110103283DD1B068F169884212
:1045900017D2F069B168401AF061E078012803D1C0
:1045A000B068F1684018F060F069B168884201D2E3
:1045B000F26900E0B26892B2F168200000F083FD79
:1045C00021E0D4F8E0050069002808D094F8120131
:1045D000032804D12000D4F8E01509698847200099
:1045E00000F080FD0FE0D4F8E005806900280AD0D3
:1045F00094F81201032806D12900C9B22000D4F88A
:10460000E02592699047002070BD70B504000D0050
:10461000EDB2002D46D104F21810060094F81101F5
:1046200002284FD1B068F169884211D2F069B168AF
:10463000401AF061E078012803D1B068F1684018B1
:10464000F060F26992B2F168200000F015FD39E0E7
:10465000306AB168B0FBF1F201FB120000280FD103
:10466000306AB16888420BD3306A716A884207D2D7
:1046700000220021200000F0FFFC0020706221E0F9
:10468000D4F8E005C068002808D094F81201032887
:1046900004D12000D4F8E015C9688847200000F054
:1046A00033FD0FE0D4F8E005406900280AD094F803
:1046B0001201032806D12900C9B22000D4F8E02550
:1046C00052699047002070BD10B5040000234022BD
:1046D00000212000FEF7C9FF002340228021200096
:1046E000FEF7C3FF012084F81201A078D4F8E41586
:1046F00049688847002010BD10B50400D4F8E405CF
:1047000000698047032084F81201002010BD10B515
:104710000400042084F81201D4F8E405C06880473E
:10472000002010BD10B50400D4F8E005C0690028D1
:1047300004D02000D4F8E015C9698847002010BDD6
:1047400038B504000D002900C9B22000D4F8E025D6
:1047500012689047D4F8E40580688047002032BD95
:1047600038B504000D002900C9B22000D4F8E025B6
:1047700052689047002032BD10B504002000D4F8E4
:10478000E015096A8847002010BD10B5040020001C
:10479000D4F8E015496A8847002010BD30B40022E3
:1047A0000F2311F00304E4B2A400A3401A00C9B21D
:1047B0008B100E4C54F823309343C9B28C100B4D20
:1047C00045F82430C9B28B10084C54F82330C0B2DD
:1047D00011F00304E4B2A40010FA04F42343C9B2B4
:1047E0008C10024D45F8243030BC70470838014029
:1047F0000021234A11008279002A36D0204A12680B
:1048000003689A431E4B1A601E4A126803689A4353
:104810001C4B1A60027989180A6803681A430A60F7
:10482000194A126803689A43174B1A60174A1268AC
:1048300003689A43154B1A604279102A0CD1124A28
:10484000126803681A43104B1A60104A1268036812
:104850001A430E4B1A600EE0094A1100427989187A
:104860000A6803681A430A6005E0027989180A6831
:1048700003689A430A607047054908607047000062
:10488000003C0140043C0140083C01400C3C01401C
:10489000143C01401CB5040001210120FDF7E0FD9E
:1048A0004FF4D850009003208DF8050002208DF8B9
:1048B000040000208DF8060000208DF8070000A9F4
:1048C0001A48FDF76BFB0A2208211848FDF7D3FBB5
:1048D0000A2209211548FDF7CEFB0A220B211348B5
:1048E000FDF7C9FB0A220C211048FDF7C4FB4FF469
:1048F0008060009001208DF8060001208DF80700EF
:1049000003208DF8050000A90848FDF747FB0A229F
:104910000A210648FDF7AFFB01214FF48040FDF767
:10492000CCFD01218020FDF7AAFD13BD000002404F
:1049300010B582B004004FF4C060FDF701FE4320C3
:104940008DF8000001208DF8010003208DF8020091
:1049500001208DF8030000A8FDF7F7FD13BD00212D
:10496000782202FB00F20723B2FBF3F2491C8A42D1
:1049700000D3FBE7704710B504004FF47A7000FBDA
:1049800004F0FFF7ECFF10BD70B504000D00002629
:104990006878002820D0012828D0032821D00528B5
:1049A0000BD0062804D0082811D009280AD022E00C
:1049B0002900200000F003F921E02900200000F088
:1049C00099F91CE02900200000F0C4F917E0290043
:1049D000200000F022FA12E02900200000F041FA45
:1049E0000DE02900200000F063FA08E02900200013
:1049F00000F0A3FA03E02900200000F0DDFA300007
:104A0000C0B270BD70B504000D00002694F812010C
:104A1000032818D1A888C0B202280FD2290020008C
:104A2000D4F8E02592689047E88800280AD1F6B2C9
:104A3000002E07D1200000F055FB03E029002000E4
:104A400000F0BAFA03E02900200000F0B5FA3000C7
:104A5000C0B270BDF8B504000D000027A88806009C
:104A60006878002864D0012832D0032840F0A48060
:104A700094F81201022802D003280CD023E0F6B2E9
:104A8000002E07D0F6B2802E04D03100C9B220002B
:104A9000FEF7B0FE1BE0688800280AD1F6B2002EAF
:104AA00007D0F6B2802E04D03100C9B22000FEF744
:104AB000A1FE29002000D4F8E0259268904720004C
:104AC00000F010FB03E02900200000F075FA73E00D
:104AD00094F81201022802D003280CD023E0F6B289
:104AE000002E07D0F6B2802E04D03100C9B22000CB
:104AF000FEF780FE1BE06888002813D1F6B2002E76
:104B00000DD0F6B2802E0AD03100C9B22000FEF7D7
:104B100099FE29002000D4F8E025926890472000F3
:104B200000F0E0FA03E02900200000F045FA43E03D
:104B300094F81201022802D003280CD037E0F6B214
:104B4000002E07D0F6B2802E04D03100C9B220006A
:104B5000FEF750FE2FE0F6B2300611D5F6B216F091
:104B60007F00282101FB004090F81A01002803D0A3
:104B7000CB480121016014E0C9480021016010E028
:104B800030060ED4F6B2282000FB064090F87203DF
:104B9000002803D0C2480121016002E0C048002182
:104BA00001600222BE49200000F04EFA03E0290015
:104BB000200000F001FAFFE73800C0B2F2BD70B586
:104BC00082B004000D00688880B2000AC0B20128DB
:104BD00008D0022818D0032822D0062862D007283F
:104BE00065D069E000A9A078D4F8E825126890475C
:104BF0000600E888402803D094F81201012802D169
:104C00000820ADF800005CE000A9A078D4F8E02509
:104C1000926A9047060002207070C4F8EC6550E07C
:104C2000A878002808D0022816D00DD3042823D055
:104C30001AD3052828D02FE000A9A078D4F8E825B9
:104C40005268904706002CE000A9A078D4F8E82527
:104C500092689047060024E000A9A078D4F8E825DF
:104C6000D268904706001CE000A9A078D4F8E82597
:104C700012699047060014E000A9A078D4F8E8254E
:104C80005269904706000CE000A9A078D4F8E82506
:104C900092699047060004E02900200000F08CF99A
:104CA00027E00EE02900200000F086F921E029002D
:104CB000200000F081F91CE02900200000F07CF9C0
:104CC00017E0BDF80000002813D0E888002810D0B5
:104CD000BDF80000E988884202D2BDF8000000E07B
:104CE000E888ADF80000BDF800203100200000F099
:104CF000ABF973BD70B504000D00A888002824D15D
:104D0000E888002821D1A87810F07F00060094F8E8
:104D10001201032804D12900200000F04DF918E009
:104D200084F813613100C9B22000FEF7B3FD200002
:104D300000F0D8F9F6B2002E03D0022084F8120158
:104D400007E0012084F8120103E02900200000F0B0
:104D500033F970BD38B504000D00688851490870FA
:104D600050480078022804D32900200000F024F9DC
:104D700052E094F81201022802D0032818D047E02C
:104D80004848007800280FD04648007884F8100181
:104D9000032084F81201434801782000FFF7D0FC7B
:104DA000200000F09FF902E0200000F09BF933E0C2
:104DB0003C48007800280FD1022084F812013948BD
:104DC000007884F81001374801782000FFF7C8FC0C
:104DD000200000F087F91AE03248007894F81011AA
:104DE000884211D094F810112000FFF7B9FC2D482B
:104DF000007884F810012B4801782000FFF7A0FC10
:104E0000200000F06FF902E0200000F06BF903E0F1
:104E10002900200000F0D0F831BD38B504000D00A5
:104E2000E888012804D02900200000F0C5F817E028
:104E300094F81201022802D0032806D00CE00122C7
:104E40001949200000F000F90AE0012204F21011D3
:104E5000200000F0F9F803E02900200000F0ACF891
:104E600031BD38B504000D0094F81201801E0128F0
:104E700010D8D4F81401002803D00C480321016095
:104E800002E00A480121016001220849200000F0E7
:104E9000DBF803E02900200000F08EF831BD0000AF
:104EA0007010002094100020741000207810002052
:104EB000F8B504000D000027688801280CD10120F6
:104EC000C4F8140129002000D4F8E0259268904726
:104ED000200000F007F92FE0688802282CD12879FB
:104EE000000629D1206940680600A88880B2000A1F
:104EF0000700FFB2012F07D019D3032F0CD007D31F
:104F0000052F11D00CD312E0012060F306160EE03D
:104F1000022060F306160AE0032060F3061606E09E
:104F2000042060F3061602E0052060F306162069EF
:104F30004660200000F0D6F8F1BD38B504000D0041
:104F400094F81201801E01280FD8688801280BD11F
:104F50000020C4F8140129002000D4F8E02592684C
:104F60009047200000F0BEF803E02900200000F088
:104F700023F831BD90F8C8250A7090F8C9254A7009
:104F800090F8CA2590F8CB351B029A184A8090F801
:104F9000CC2590F8CD351B029A188A8090F8CE2542
:104FA00090F8CF351B029A18CA80CA88C0F83C21F5
:104FB000012280F81121704738B504000D002878CF
:104FC000000604D580212000FEF714FC0BE0E888E1
:104FD000002804D180212000FEF70CFC03E0002112
:104FE0002000FEF707FC2000FFF70AFA31BDF8B5F4
:104FF00004000D0016000027002C1AD0200000F03D
:1050000019F84000801C3080FFB2308878557F1C32
:10501000FFB2032078557F1C2078002809D0FFB20A
:1050200020787855641C7F1CFFB2002078557F1CC7
:10503000F2E7F1BD010000200A78002A02D0401CEE
:10504000491CF9E7C0B27047F8B504000D0016001E
:105050000027B6B2C4F83861B6B2C4F83461022091
:1050600084F81101B6B233002A0000212000FEF7B7
:1050700092FB3800C0B2F2BDF8B504000D00160076
:105080000027B6B233002A0000212000FEF783FB80
:105090003800C0B2F2BDF8B504000D0016000027BC
:1050A000B6B2C4F89063B6B2C4F88C63032084F837
:1050B000110133009BB22A0000212000FEF738FBCB
:1050C0003800C0B2F2BDF8B504000D00160000278C
:1050D00033009BB22A0000212000FEF729FB380094
:1050E000C0B2F2BD38B504000025042084F81101D7
:1050F0000023002200212000FEF74DFB2000FFF7D7
:105100007FF92800C0B232BD38B504000025052063
:1051100084F811010023002200212000FEF708FB83
:105120002000FFF76DF92800C0B232BD70B5040051
:1051300000262000FEF7DBFD002869D02000FEF7E6
:10514000E2FD0500002D01D1002062E0C5F3C04062
:10515000C00704D5200000F059F930430600C5F31C
:105160008040C00704D5200000F0B1F830430600AD
:10517000C5F34000C00705D50021080050F002002B
:10518000E1684861002D04D5200000F043F8304369
:105190000600C5F3C020C00704D5200000F060F869
:1051A00030430600C5F3C000C00704D5200000F05E
:1051B000A9F930430600C5F30010C00704D520004C
:1051C00000F0AFF930430600C5F30030C00704D546
:1051D000200000F048FA30430600C5F34030C00715
:1051E00004D5200000F0A8FA30430600C5F30050B3
:1051F000C00704D5200000F0C6FA30430600C5F30E
:105200004050C00704D5200000F0CCFA304306001F
:10521000300070BDF8B50400A07A002809D0D4F899
:105220000C01060036F0020676087600D4F80C0170
:1052300006600020070057F0010720694068B84366
:10524000216948602000DFF87C1509688969884772
:105250000020050055F00045E06845610120F2BDE1
:10526000F8B504002000DFF85C1509684969884733
:105270002069806807000020050055F40065E0689B
:105280004561A07A002820D017F00100C0B20028A4
:105290001BD00020060056F00106D4F80C0100686F
:1052A0003043D4F80C11086056F00206D4F80C0113
:1052B00000683043D4F80C110860DFF80C05006872
:1052C00050F00600DFF8001508600120F2BD2DE95E
:1052D000F04104000027002005002000FFF787F8B8
:1052E0000600002E00F08F803000C00740F188805B
:1052F0003900C9B2200000F069FA050015F001007C
:10530000C0B2002824D00120B84080462069406BFC
:1053100030EA0800216948630020050055F00105C6
:1053200014EB8700806985603900C9B22000DFF87E
:105330009424126852689047E078012808D1002F21
:1053400006D194F81101042802D12000FFF758F883
:10535000C5F38000C00707D50020050055F00405FF
:1053600014EB870080698560C5F3C000C00707D5CE
:105370000020050055F0080514EB87008069856062
:10538000C5F30010C00707D50020050055F0100533
:1053900014EB870080698560C5F34010C00707D50E
:1053A0000020050055F0200514EB8700806985601A
:1053B000C5F38010C00707D50020050055F0400553
:1053C00014EB870080698560C5F34000C00707D5EE
:1053D0000020050055F0020514EB87008069856008
:1053E000C5F3C010C0070BD53900200000F0EBF862
:1053F0000020050055F0800514EB8700806985606A
:105400007F1C76086DE70120BDE8F0812DE9F041B1
:1054100004005FF00008002006002000FEF7D3FF24
:105420000500002D6BD02800C00764D54146C9B2E5
:105430002000FEF7D1FF060016F00100C0B20028E0
:1054400030D00020060056F0010614EB8800406DB5
:105450008660E078012811D114EB8800406D006966
:105460000700282000FB0840D0F878037903490B97
:10547000401A282101FB0841C1F888034146C9B2FE
:105480002000D04A126812689047E078012809D1BC
:10549000B8F1000F06D194F81101052802D12000BF
:1054A000FEF7AEFFC6F34000C00707D50020060098
:1054B00056F0020614EB8800406D8660C6F380004B
:1054C000C00707D50020060056F0040614EB88003C
:1054D000406D8660C6F3C000C0070CD52000B949F6
:1054E0000968896888470020060056F0080614EB12
:1054F0008800406D866018F101086D0891E7012071
:10550000BDE8F08138B504002000AE490968C968DB
:1055100088470020050055F00805E0684561012036
:1055200032BDF8B504000020070057F01007E0680E
:105530008069B843E1688861E068006A050015F099
:105540000F00282101FB004000F270300600680CBB
:1055500010F00F00012808D0022807D003281DD022
:1055600004281CD006281BD026E025E02809400589
:10557000400D80B2002810D0C5F30A1292B2F16833
:105580002000FEF709FAC5F30A10F1684018F06030
:10559000B069C5F30A110818B0610DE00CE00BE02A
:1055A000082214F5B9612000FEF7F6F9B069C5F3D9
:1055B0000A110818B061FFE7E06880693843E168C4
:1055C00088610120F2BD2DE9F84304000D005FF071
:1055D000000800200600282000FB054000F21810FB
:1055E00007007869B969401A8046B868404501D219
:1055F000B868804618F103008008814614EB8500E6
:10560000806980690600B0B2814529D2B86979699C
:10561000884225D27869002822D07869B969401A71
:105620008046B868404501D2B868804618F103004A
:105630008008814643469BB22A00D2B2F968200016
:10564000FEF786F9F86818EB0000F860B86918EB07
:105650000000B86114EB8500806980690600D2E71C
:105660000120BDE8F2832DE9F84F040000208146B7
:1056700000200500002006000020070000208046D2
:105680000020824659F001092069406830EA09008B
:105690002169486000212000FEF7BDFA0020834602
:1056A000607883450CD214EB8B008069FF21816008
:1056B00014EB8B00406DFF2181601BF1010BEFE7C4
:1056C00020695FF0FF318161012060F30F05012047
:1056D00060F31F452069C56156F0080656F00106C3
:1056E00056F0040656F002062069466157F001079D
:1056F00057F0080757F0020757F0040757F0200744
:105700002069076120690068804638F4FE682069D6
:10571000C0F800802000FEF773FE002082465AF495
:10572000805AE068C0F814A0200026490968096979
:1057300088470120BDE8F28F70B504002000FEF715
:105740000DFCE068C06806002000FEF7EDFB0328B2
:1057500008D10020A0704FF40070A080092060F3F1
:105760008D2606E00120A0704020A080052060F377
:105770008D26E068C6600020050055F40055E068FD
:105780004561012070BD38B50400002005002000EF
:105790000C490968C969884755F48015E068456176
:1057A000012032BD38B50400002005002000054965
:1057B0000968096A884755F40015E06845610120C9
:1057C00032BD00005C01002010ED00E030B40200AA
:1057D00015692D692C0015696D6B2B0033FA01F5E5
:1057E00015F0010554EAC514C9B212EB8105AD6983
:1057F000AD682540280030BC7047010070B504003A
:105800000D000223D4F8EC05B0F8392081212000E6
:10581000FDF72BFF0223D4F8EC05B0F8402001215E
:105820002000FDF722FF0323082282212000FDF73C
:105830001CFFDFF820030600022030710020707189
:10584000C54800688047D4F8EC05B0F84030C34A3A
:1058500001212000FDF76CFF002070BD38B5040069
:105860000D0081212000FDF73EFF01212000FDF702
:105870003AFF82212000FDF736FFB7484068804795
:10588000002032BDF8B504000D00287810F060004B
:10589000C0B200282DD0202825D1E88800281AD0B1
:1058A000287800060BD5EA88AD496878AA4B9B6832
:1058B0009847EA88AA492000FFF7C6FB11E06878FC
:1058C000A8490860E888A8490860EA88A449200037
:1058D000FFF7E1FB05E00022002168789E4B9B6802
:1058E0009847002035E029002000FFF765FB0220E3
:1058F0002FE06878062804D00A2817D00B281BD080
:1059000026E0688880B2000AC0B2212807D19748F3
:105910000700E8883B2801D33A2600E0EE883200F1
:1059200092B239002000FFF78FFB11E0012290496D
:105930002000FFF789FB0BE06888C0B2012803D282
:10594000A8788B49086003E029002000FFF734FBAA
:105950000020F2BD10B5040082480068FF280AD07C
:10596000814802687E497F4800687B4B9B68984766
:105970007C48FF210160002010BDF8B504000D0037
:105980007C480078012844D17B480068002803D176
:105990007848002101703CE0D4F8EC05B0F83900FB
:1059A0007549096888421BD2744800680600D4F81B
:1059B000EC05B0F83900070070480068D4F8EC1521
:1059C000B1F8391010FA81F06C4908606A48006833
:1059D000D4F8EC15B1F83910401A674908600FE0A7
:1059E000664800680600644800680700634800686D
:1059F000614909680818614908605F480021016031
:105A0000BFB23B00B6B25E48321881212000FDF7DC
:105A1000C2FE0020F2BD70B504000D00EDB22820DA
:105A200000FB0540D0F888030600B6B231004B48B1
:105A3000494A12699047D4F8EC05B0F84030474A1B
:105A400001212000FDF774FE002070BD10B5040098
:105A50004C480068411C4B4A1160052805D1494853
:105A600000210160200000F002F8002010BD70B598
:105A7000040040480078012865D040480068B0F52F
:105A8000006F02D13D48002101603C4800683E495A
:105A90000968884203D137480021017053E03A4831
:105AA000006836490968884206D234480068D0F553
:105AB00000603149086006E0334800682F490968F2
:105AC000401A2D490860D4F8EC05B0F839002A498D
:105AD000096888421BD2294800680500D4F8EC0503
